:1000000000400020E10C0000210D0000230D000045
:1000100000000000000000000000000000000000E0
:10002000000000000000000000000000250D00009E
:100030000000000000000000270D0000290D000056
:100040002B0D00002B0D00002B0D00002B0D0000D0
:100050002B0D0000000000002B0D00002B0D0000F8
:100060002B0D00002B0D00002B0D00002B0D0000B0
:100070002B0D00002B0D00002B0D00002B0D0000A0
:100080002B0D00002B0D00002B0D00002B0D000090
:100090002B0D00002B0D00002B0D00002B0D000080
:1000A0002B0D00002B0D00000000000000000000E0
:1000B0000000000000000000000000000000000040
:1000C00008B5054B054803331B1A062B03D9044B0F
:1000D000002B00D0984708BD4C0800204C08002099
:1000E000000000000648074908B5091A8910CB0F1F
:1000F0005918491003D0044B002B00D0984708BD75
:100100004C0800204C0800200000000010B5074CEF
:100110002378002B09D1FFF7D3FF054B002B02D02A
:10012000044800E000BF0123237010BD4C080020EC
:1001300000000000EC1A000008B5094B002B03D0AA
:100140000848094900E000BF08480368002B02D1B5
:10015000FFF7C8FF08BD064B002BF9D09847F7E71B
:1001600000000000EC1A00005008002048080020A1
:1001700000000000144B002B00D1124B9D46402282
:1001800092029A1A924600218B460F461148124A53
:10019000121A01F0C5F90D4B002B00D098470C4BFB
:1001A000002B00D098470020002104000D000B48D0
:1001B00000F0AEFE00F0DEFE2000290000F010F896
:1001C00000F0AEFE0000080000400020000000002B
:1001D000000000004C080020A4080020410F00008F
:1001E00090B58DB002AF7860396000F0B1F800F0E2
:1001F0004FF800F0A5FA00F039FBA023DB05214AF7
:1002000000219950A023DA05ED23DB000021D15015
:100210000C2000F0D3FE031C3B623B6A181C00F06C
:100220009FFA3B6A1B68FB613B6A5B68BB613B6A88
:100230009B687B61FB69181C322100F077FD031C71
:100240003B61BB695B42181C322100F06FFD031C4F
:10025000FB603A69FB68101C191C00F02BFB64233F
:100260007B627B6A013B7B627B6A002BF9D106488B
:100270000649FA69BC697B690093231C00F010FAF7
:10028000CBE7C0464407000009030000541A0000F1
:1002900080B500AFA023DB05154A00219950A023AB
:1002A000DA05EC23DB000121D150124A124B182150
:1002B000D150104A114B1921D1500E4A104B1149FF
:1002C000D1500C49A223DB0001225242CA500949F5
:1002D000A123DB0001225242CA50064AA023DB00C0
:1002E0000421D150034B01221A60BD4680BDC04697
:1002F00064070000002000400C0500001405000009
:10030000240500000050270080B582B000AF021C19
:10031000FB1D1A700C4B01229A600B4A8E235B0066
:100320000021D1500849FB1D1B78084A8B50C0465C
:10033000054A8E235B00D358012BF9D1024B0122D1
:10034000DA60BD4602B080BD002000401C05000000
:1003500080B500AFA023DA05E023DB001549D150BA
:10036000A023DA05EF23DB001249D150124AA12362
:10037000DB000021D150104A104B1E21D1500E4AF3
:1003800084235B000021D1500B4A8E235B000021A7
:10039000D150094A92235B000021D1500649084AF6
:1003A000CC235B048B50044AA023DB000521D150F1
:1003B000BD4680BD0C060000003000400C0500006A
:1003C0002405000080B586B000AFBA607B600F23C3
:1003D000FB18021C1A700E23FB180A1C1A703049F5
:1003E0000F23FB181A78B123DB00CA502C4B0122D3
:1003F0009A602B4A8E235B000021D15028490E239E
:10040000FB181B78274A8B50C046254A8E235B0079
:10041000D358002BF9D0224A8E235B000021D15003
:100420001F4A84235B000021D1501D4B01221A601A
:1004300000237B6117E0C046194A84235B00D35830
:10044000002BF9D0164A84235B000021D1507B6930
:100450007A68D3181249A322D2008A58D2B21A70ED
:100460007B6901337B61BB685A1E7B699A42E2DC7F
:100470000B4B01225A61C046094A84235B00D358C2
:10048000002BF9D0BB68013B7A68D3180449A3223A
:10049000D2008A58D2B21A70BD4606B080BDC0469E
:1004A000003000401C05000080B586B000AFBA6087
:1004B0007B600F23FB18021C1A700E23FB180A1C0A
:1004C0001A7020490F23FB181A78B123DB00CA5099
:1004D0001C4B01229A601B4A8E235B000021D150E5
:1004E00018490E23FB181B78174A8B50C046154A33
:1004F0008E235B00D358002BF9D000237B6116E0DC
:10050000104A8E235B000021D1500E497B697A6826
:10051000D3181B781A1C0C4BCA50C046094A8E23AC
:100520005B00D358002BF9D07B6901337B617A697A
:10053000BB689A42E4DB034B00225A61BD4606B019
:1005400080BDC046003000401C05000080B586B06C
:1005500000AF786039603B68002B03D17B683020A6
:10056000984755E000237B6100233B610023FB603B
:100570003B68002B04DA0123FB603B685B423B6075
:1005800019E03A69131C9B009B185B003B613B68B8
:10059000181C0A2100F0B0FC0B1C1A1C3B699B18AC
:1005A0003B613B68181C0A2100F0C0FB031C3B6048
:1005B0007B6901337B613B68002BE2D1FB68002B38
:1005C00002D07B682D20984715E03B69181C0A2152
:1005D00000F092FC0B1CDBB23033DAB27B68101CEB
:1005E00098473B69181C0A2100F0A0FB031C3B61E3
:1005F0007B69013B7B613B69002BE6D105E07B68B1
:10060000302098477B69013B7B617B69002BF6D1E9
:10061000BD4606B080BDC04680B584B000AF7860EE
:100620000023FB600EE0FA68131C9B009B185B0024
:10063000FB607B681B78303BFA68D318FB607B68F3
:1006400001337B607B681B78642BECD1FB68181C42
:10065000BD4604B080BDC04680B584B000AF7860B0
:100660007B68002B01D1012316E00023FB607B682F
:10067000002B02DAFB680133FB6009E0FB68013301
:10068000FB607B68181C0A2100F050FB031C7B6098
:100690007B68002BF2D1FB68181CBD4604B080BDFE
:1006A0000EB480B589B000AF78603023FB18FB60D2
:1006B000FB6ABB6139E0BB691B78252B05D0BB69A0
:1006C0001A787B68101C98472CE0FB681A1DFA60AA
:1006D0001B687B61BB690133BB61BB69181CFFF7F9
:1006E0009BFF031C3B617B69181CFFF7B5FF031CD4
:1006F000FB6102E0BB690133BB61BB691B78642B02
:10070000F8D105E07B6820209847FB690133FB6145
:10071000FA693B699A42F5DB7A687B69101C191CFF
:10072000FFF714FFBB690133BB61BB691B78002B6A
:10073000C1D1BD4609B080BC08BC03B01847C04653
:1007400080B582B000AFFB1D11221A70FB1D1D2069
:100750002A210122FFF7A8FEBD4602B080BDC04697
:1007600080B586B000AF78600C23FB1800221A70A9
:100770000C23FB1800225A700C23FB1800229A70DD
:100780000C23FB180022DA700C23FB1800221A71CC
:100790000C23FB1800225A710C23FB181D20012189
:1007A0000622FFF70FFE0C23FB181B781B0299B2E1
:1007B0000C23FB185B789AB21623FB180A431A80A5
:1007C0001623FB1800229B5E9B119BB29BB25B42DF
:1007D0009AB21623FB181A800C23FB189B781B0275
:1007E00099B20C23FB18DB789AB21423FB180A4346
:1007F0001A801423FB1800229B5E9B119BB29BB2B4
:100800005B429AB21423FB181A800C23FB181B7945
:100810001B0299B20C23FB185B799AB21223FB18C6
:100820000A431A801223FB1800229B5E9B119BB285
:100830009BB25B429AB21223FB181A801623FB1854
:1008400000229A5E7B681A607B6804331422BA180F
:100850000021525E1A607B6808331222BA18002108
:10086000525E1A60BD4606B080BDC04680B582B0FB
:1008700000AF04237B6015E0A023DA0501217B682B
:1008800099400B1C191CA323DB00D150A023DB05CE
:1008900001217A6891400A1C111C054A99507B6815
:1008A00001337B607B680F2BE6DDBD4602B080BD67
:1008B0000C05000080B586B000AF7860396000F0AC
:1008C0002DF80823FB187A681A600823FB183A6889
:1008D0005A600823FB18181C00F034F80823FB1892
:1008E0001B687B610823FB185B683B61A023DB0569
:1008F00001217A6991400A1C111C074A9950A023D2
:10090000DA0501213B6999400B1C191CA123DB006E
:10091000D150BD4606B080BD0C05000080B500AFCB
:10092000A023DB050549E02212025A50A023DA0574
:10093000A123DB000249D150BD4680BD0C0500005B
:10094000F01F000080B586B000AF78607B681B6840
:100950007B617B685B683B617B69022B02DD022364
:100960007B6105E07B69023302DA02235B427B6133
:100970003B69022B02DD02233B6105E03B69023348
:1009800002DA02235B423B613B690233042B00D94C
:10099000BEE09A00634BD3181B689F467B69023305
:1009A000042B00D9ABE09A005F4BD3181B689F461D
:1009B0000623FB600F23BB6013E00A23FB600E23BA
:1009C000BB600EE00423FB600F23BB6009E009233A
:1009D000FB600E23BB6004E00523FB600F23BB60BC
:1009E000C0468CE07B690233042B00D989E09A0071
:1009F0004E4BD3181B689F460B23FB600D23BB6037
:100A000013E00A23FB600D23BB600EE00923FB60AB
:100A10000D23BB6009E00823FB600D23BB6004E0ED
:100A20000723FB600D23BB60C0466AE07B6902338D
:100A3000042B68D89A003E4BD3181B689F460523A9
:100A4000FB600E23BB6013E00C23FB600D23BB6037
:100A50000EE00623FB600E23BB6009E00C23FB6065
:100A60000F23BB6004E00423FB600E23BB60C04681
:100A700049E07B690233042B47D89A002D4BD318E9
:100A80001B689F460723FB600F23BB6013E008230E
:100A9000FB600F23BB600EE00923FB600F23BB60EC
:100AA00009E00A23FB600F23BB6004E00B23FB601B
:100AB0000F23BB60C04628E07B690233042B26D895
:100AC0009A001D4BD3181B689F460423FB600D231F
:100AD000BB6013E00723FB600E23BB600EE0052321
:100AE000FB600D23BB6009E00823FB600E23BB60A5
:100AF00004E00623FB600D23BB60C04607E0C04650
:100B000006E0C04604E0C04602E0C04600E0C04641
:100B10007B68FA681A607B680433BA681A60BD465D
:100B200006B080BD6C1A0000801A0000941A000004
:100B3000A81A0000BC1A0000D01A000080B500AF4F
:100B400000F034F8031E06D0124B134A1A60134B00
:100B5000802212021A6000F069F8031E05D080237B
:100B6000DA05C123DB000121D15000F085F8031E16
:100B70000ED00B4B1B68012B07D0094B094A1A609A
:100B8000C046074B1B68012BFBD1074BC0221A60E4
:100B9000BD4680BD04050040DFFF07C0186C004063
:100BA00000EC06407593000014EC064080B500AFE1
:100BB0001A4B1B68FF221340012B2AD1184B1B68CC
:100BC0000F22134025D1174B1B68F022134006D18A
:100BD000154B1B68F022134001D101231AE0114B81
:100BE0001B68F0221340102B06D10F4B1B68F0221C
:100BF000134001D101230DE00A4B1B68F022134082
:100C0000302B06D1084B1B68F022134001D1012381
:100C100000E00023181CBD4680BDC046E00F00F078
:100C2000E40F00F0E80F00F0EC0F00F080B500AF2B
:100C30000D4B1B68FF221340012B11D10B4B1B687E
:100C40000F2213400CD10A4B1B68F0221340402B9B
:100C500006D1084B1B68F022134001D1012300E0AC
:100C60000023181CBD4680BDE00F00F0E40F00F02B
:100C7000E80F00F0EC0F00F080B500AF144B1B68DC
:100C8000FF221340012B1ED1124B1B680F22134071
:100C900019D1114B1B68F0221340A02B06D10F4B2A
:100CA0001B68F022134001D101230DE00A4B1B68A1
:100CB000F0221340D02B06D1084B1B68F0221340C2
:100CC00001D1012300E00023181CBD4680BDC046B1
:100CD000E00F00F0E40F00F0E80F00F0EC0F00F080
:100CE00003210A4802680A430260094802680A436D
:100CF00002600849084A094B9B1A03DD043BC858A7
:100D0000D050FBDCFFF71AFFFFF734FA2405004050
:100D100054050040F81A0000000000204C08002094
:100D2000FEE7FEE7FEE7FEE7FEE7FEE703460B43CE
:100D30007FD4002243088B4274D303098B425FD3D4
:100D4000030A8B4244D3030B8B4228D3030C8B4200
:100D50000DD3FF22090212BA030C8B4202D31212E6
:100D6000090265D0030B8B4219D300E0090AC30BBB
:100D70008B4201D3CB03C01A5241830B8B4201D368
:100D80008B03C01A5241430B8B4201D34B03C01A51
:100D90005241030B8B4201D30B03C01A5241C30AC9
:100DA0008B4201D3CB02C01A5241830A8B4201D33A
:100DB0008B02C01A5241430A8B4201D34B02C01A24
:100DC0005241030A8B4201D30B02C01A5241CDD2C9
:100DD000C3098B4201D3CB01C01A524183098B4214
:100DE00001D38B01C01A524143098B4201D34B01FD
:100DF000C01A524103098B4201D30B01C01A524160
:100E0000C3088B4201D3CB00C01A524183088B42E6
:100E100001D38B00C01A524143088B4201D34B00CF
:100E2000C01A5241411A00D2014652411046704741
:100E30005DE0CA0F00D04942031000D34042534046
:100E400000229C4603098B422DD3030A8B4212D306
:100E5000FC22890112BA030A8B420CD38901921138
:100E60008B4208D3890192118B4204D389013AD075
:100E7000921100E08909C3098B4201D3CB01C01A4A
:100E8000524183098B4201D38B01C01A524143095D
:100E90008B4201D34B01C01A524103098B4201D34B
:100EA0000B01C01A5241C3088B4201D3CB00C01AB8
:100EB000524183088B4201D38B00C01A5241D9D2D0
:100EC00043088B4201D34B00C01A5241411A00D251
:100ED0000146634652415B10104601D34042002B4D
:100EE00000D54942704763465B1000D3404201B5CC
:100EF000002000F00BF802BD0029F8D003B5FFF781
:100F000015FF0EBC4243891A1847C0467047C046B9
:100F100008B5011C00220020002300F05DFB08BD85
:100F200010B50021041C00F0CDFB044B1868C36B06
:100F3000002B00D09847201C00F07EFDE81A00002E
:100F400038B5094B094CE41AA41009D0084AA51871
:100F5000AD00ED182B68013C9847043D002CF9D1F9
:100F600000F072FD38BDC04644080020480800204B
:100F7000FFFFFF3F70B50D4E0D4D0024AD1BAD10B2
:100F800005D0A300F35801349847A542F9D100F0E9
:100F900055FD084E084D0024AD1BAD1005D0A30033
:100FA000F35801349847A542F9D170BD3C080020A0
:100FB0003C0800203C0800204408002008B5034BF2
:100FC000011C186800F00EF808BDC0462804002077
:100FD00008B5034B011C186800F048FC08BDC0466A
:100FE00028040020F0B55F464D4656464446F0B40E
:100FF0000D1C0B3583B0071C162D2DD907239D43DF
:1010000000D5C7E0A94200D9C4E000F0CFFAF82328
:10101000FF339D4228D8E908CB4ECB00F318DC689B
:101020009C4200D1C1E1032362689A43131CE26829
:10103000A168CA6091600122E3185968381C0A430C
:101040005A6000F0B5FA201C083003B03CBC904652
:101050009946A246AB46F0BD102900D99AE0381C4B
:1010600000F0A4FA1025D6E7690A00D196E0042919
:1010700000D93CE138239C46A9098C4463465900B9
:10108000B14E89007118CC68A14215D00323626863
:101090009A43131C521B0F2A00DD83E00320002A11
:1010A00007DBC4E7636883435A1B0F2A7ADC002AF4
:1010B000BDDAE468A142F5D1614601310091321CEC
:1010C00034690832944200D161E103236168994395
:1010D0000B1C481B0F2800DD48E1726132610028BB
:1010E000A9DA9A4A914200D90DE10123C808821079
:1010F000934072681A43C300F3189868E360A060D5
:101100009C60131C7260C4600120009A9210904091
:1011100098424CD818420DD10322009940009143C7
:101120000A1D0092184205D1009A40000432009234
:101130001842F9D003239846009AD3009946B14447
:10114000CC4692466346DC68A44507D121E1002ADB
:1011500000DB33E1E468A44500D11AE1424663684C
:1011600093435A1B0F2AF2DD012163190D43656079
:10117000E068A5680836E86011438560F360B360F5
:10118000381CDE609E6059609A5000F011FA201CF5
:1011900008305AE70C2300203B6056E73F237E21AE
:1011A0009C466DE701235B429846C44484E70323D1
:1011B000B46862689A439046954203D8521B0F2A3E
:1011C00000DD86E0231C4344614A0193614B934652
:1011D0001B681268EB18013200D15CE15E4A94464C
:1011E00063441B0B1B030093381C009900F0E2F9C9
:1011F000031C8146013360D0019B834200D9F8E093
:10120000564B009A9A461B689C46534662441A60A5
:10121000019B4B4500D14CE15B461B68013300D17B
:101220005EE14B4601995B1AD21853461A600723B8
:101230004A46134000D113E108218946D21A91444D
:10124000474AD21A009B381C4B441B051B0DD31A6E
:10125000191C9B4600F0AEF9431C00D134E14B460B
:10126000C01A01235844184353461B685B441A1C98
:1012700053461A604B46B3605860B44213D043469D
:101280000F2B00D8F7E04346072160680C3B8B43E7
:1012900006390140052019436160E1184860886003
:1012A0000F2B00D914E12F4B19688A4200D91A601C
:1012B0002D4B19688A4200D91A600323B46862680A
:1012C0009A43131C5A1B9D4200D9B9E00F2A00DC37
:1012D000B6E00123291C6519194313436160381CCA
:1012E000B5606B6000F064F9201C0830ADE614298D
:1012F00073D9542900D9A8E06E239C46290B8C444D
:1013000063465900BCE64A0A042A6CD88A09383276
:10131000101C520092009446B44462460321926825
:101320008846624500D19EE041465068884383422A
:1013300002D292689445F7D1D0687368E060A260E9
:101340008460D460E0E6C0462C040020FF01000069
:1013500038080020700800200F10000074080020DA
:10136000081000006C0800206808002001216319A3
:101370000D430143656073613361DA609A605960BF
:101380001850381C00F014F9201C08305DE6736812
:10139000BAE608239B46073BDC449B46DA444346B7
:1013A0005246134200D0CDE631E0231C64698A1C0A
:1013B00008330092A34200D181E634E60122E3180B
:1013C0005968381C0A435A60E368A268D3609A607F
:1013D00000F0EEF8201C083037E65B239C468C4476
:1013E000634659004CE6142A58D85B32101C520050
:1013F00090E7B44200D060E702E7009B013B009316
:101400004B461A68083B91469A4200D080E043461A
:10141000009A1342F1D1736883437360400098428D
:1014200000D9C4E6002800D1C1E6184272D1524664
:101430000092009A4000043200921842F9D07BE6F4
:10144000381C00F0B5F80020FFE5AA235B009942A4
:1014500017D8DD3B9C46E90B8C44634659000FE6E8
:1014600080225201EEE60123801083407168101C37
:101470000B43736062E701234A464C4653600023E6
:1014800020E7264B994210D87C239C46A90C8C441B
:1014900063465900F4E510330093A5E6542A23D897
:1014A0000A0B6E32101C520034E77E23FC219C464E
:1014B000E6E51B0500D0AFE6009BB1684344181C6D
:1014C000012303434B60EEE6002301209B46CBE65D
:1014D000211C381C083100F0C9F953461A68E2E6AD
:1014E0005B464A461A60A2E6AA204000824204D81F
:1014F000CA0B7732101C52000CE70848824204D80D
:101500008A0C7C32101C520004E7FC227E2001E78A
:10151000736883E7534600930EE6C0465405000007
:1015200070B583073FD0541E002A3BD0CEB2031CB7
:10153000032503E0621E002C34D0141C01335A1E14
:1015400016702B42F6D1032C24D9FF250D402A0218
:1015500015432A0415430F2C11D9261C103E3609B9
:10156000013636011A1C9B19156055609560D560CF
:1015700010329342F8D10F221440032C0AD9261FAF
:10158000B6080136B6001A1C9B1920C29342FCD142
:1015900003221440002C05D0C9B21C191970013364
:1015A000A342FBD170BD141C031CCCE77047C0469E
:1015B0007047C04638B50023064C051C081C236044
:1015C00000F02CFA431C00D038BD2368002BFBD060
:1015D0002B60F9E7A0080020F8B544465F46564660
:1015E0004D469B462F4BF0B41C68A4235B00051CA2
:1015F000E0580E1C904600284BD043681F2B0DDC92
:101600005C1C002D21D102339B0044601E50002041
:101610003CBC90469946A246AB46F8BD224B002BF7
:101620003CD0C8204000FFF7C9FC002836D0A422D7
:1016300000235200A15843600160A0504032835003
:10164000043283500124002DDDD09A00914681445C
:10165000424688214F467A50C42252009046804428
:1016600042468739994012688A460A439446424660
:1016700061461160842249465F4652008F50022D18
:10168000C1D1021C55468D32FF3211680D431560E1
:10169000B9E7201C4D30FF30E050AEE7012040425A
:1016A000B6E7C046E81A0000BD0F000008B5034BBE
:1016B000002B02D00248FFF72BFC08BD0000000001
:1016C000410F0000F0B556465F464D464446F0B423
:1016D0000E1C3C4B87B01B68019003934933FF33CA
:1016E0000493A422039B52009F58002F4CD0049BCC
:1016F000984600239B46C4235B009C46BC4463463B
:101700000293C6235B009A467C68BA44A5007D1903
:10171000013C08D526E06B1DFF331B68B34204D0A3
:10172000043D013C1ED3002EF5D17B686A68013B65
:10173000A3423AD05B466B60002AF1D07B680299E5
:1017400099460123A34009680591194223D1904786
:101750007B684B45C5D143461B68BB42C1D1043DA4
:10176000013CE0D2184B002B0ED07B68002B23D11C
:101770003B68002B24D04246381C1360FFF728FC3E
:1017800043461F68002FB6D107B03CBC904699462F
:10179000A246AB46F0BD51460968194207D12B1C41
:1017A0008433196801989047D2E77C60C4E72B1C0A
:1017B000843318689047CBE73B68B8461F1CE1E7C5
:1017C0000023FAE7E81A0000D10F0000F8B50C1C5E
:1017D000061CFFF7EBFE204FBB685D6803239D43AB
:1017E0001E4B2C1B9C466444240B1D4B013C2403C4
:1017F0009C4207DD301C0021FFF7DCFEBB685B1953
:10180000984204D0301CFFF7D3FE0020F8BD61429F
:10181000301CFFF7CFFE431C0DD001232D1BBA68EF
:101820001D43104B55601A68301C141B1C60FFF7D9
:10183000BFFE0120EAE7301C0021FFF7BBFEBB68BA
:10184000C21A0F2ADEDD08490968401A05490860F6
:1018500001210A435A60D5E72C040020EF0F000055
:10186000FF0F00007408002038080020F0B547463C
:1018700080B4002949D00C1C051CFFF797FE211CE1
:1018800008394F6801233C1C9C430A19506898464C
:1018900002339843031C5B488668964252D0464602
:1018A00053603E420BD10826B4460F688444C91BDE
:1018B000E4198F6867455ED0CE68FE60B760012787
:1018C000D61876683E4208D1E4184F4E9368B3426A
:1018D00000D173E0D268DA6093604C4B27434F60CD
:1018E0000C519C4214D8E408FF3BA210FF3B9340EC
:1018F0004268E4001343436000198368C8608B604A
:101900008160D960281CFFF753FE04BC9046F0BDEF
:10191000630A042B43D8A30938331A1C5E00B600AF
:101920008619B3680327B3423FD05A68BA43A2422C
:1019300002D99B689E42F8D1DA68CA608B609160D8
:10194000D960DFE71C1943463B4206D10B68C91A30
:101950008A68E418CB68D3609A6001222C4B22433A
:101960001B684A6081609C42CCD32A4B281C1968B2
:10197000FFF72CFFC6E74646D0184068304209D131
:101980004646E418D36892682643D3609A604E6056
:101990000C51B7E7464626434E600C51B2E7142B74
:1019A00014D85B331A1C5E00B9E7012492109440EE
:1019B000221C4468224342601A1CBEE72743D960B8
:1019C0009960CB608B604F600C519BE7542B04D81F
:1019D000230B6E331A1C5E00A1E7AA225200934229
:1019E00004D8E30B77331A1C5E0098E70A4A934247
:1019F00004D8A30C7C331A1C5E0090E7FC267E22E0
:101A00008DE7C0462C04002034040020FF010000B4
:101A1000340800207008002054050000044A1368B0
:101A2000002B03D018181060181C7047014BF9E701
:101A30009C080020A8080020FEE7C046F8B5C04674
:101A4000F8BC08BC9E467047F8B5C046F8BC08BC58
:101A50009E467047583A2025366420593A2025364C
:101A600064205A3A202536640A0D00009C090000C3
:101A7000E40900002C0A0000720A0000B80A000005
:101A8000B0090000BA090000C4090000CE09000036
:101A9000D8090000F8090000020A00000C0A000042
:101AA000160A0000200A00003E0A0000480A000052
:101AB000520A00005C0A0000660A0000840A000066
:101AC0008E0A0000980A0000A20A0000AC0A00007A
:101AD000CA0A0000D40A0000DE0A0000E80A00007A
:101AE000F20A000043000000000000200000000097
:081AF00084E6FF7F0100000005
:101AF80000000000EC02002054030020BC0300207A
:101B080000000000000000000000000000000000CD
:101B180000000000000000000000000000000000BD
:101B280000000000E41A00000000000000000000AF
:101B3800000000000000000000000000000000009D
:101B4800000000000000000000000000000000008D
:101B5800000000000000000000000000000000007D
:101B6800000000000000000000000000000000006D
:101B7800000000000000000000000000000000005D
:101B8800000000000000000000000000000000004D
:101B9800000000000000000001000000000000003C
:101BA8000E33CDAB34126DE6ECDE05000B00000001
:101BB800000000000000000000000000000000001D
:101BC800000000000000000000000000000000000D
:101BD80000000000000000000000000000000000FD
:101BE80000000000000000000000000000000000ED
:101F18000000000000000000000000200000000099
:101F2800000000002C0400202C04002034040020B1
:101F3800340400203C0400203C0400204404002019
:101F4800440400204C0400204C04002054040020C9
:101F5800540400205C0400205C0400206404002079
:101F6800640400206C0400206C0400207404002029
:101F7800740400207C0400207C04002084040020D9
:101F8800840400208C0400208C0400209404002089
:101F9800940400209C0400209C040020A404002039
:101FA800A4040020AC040020AC040020B4040020E9
:101FB800B4040020BC040020BC040020C404002099
:101FC800C4040020CC040020CC040020D404002049
:101FD800D4040020DC040020DC040020E4040020F9
:101FE800E4040020EC040020EC040020F4040020A9
:101FF800F4040020FC040020FC0400200405002058
:10200800040500200C0500200C0500201405002004
:10201800140500201C0500201C05002024050020B4
:10202800240500202C0500202C0500203405002064
:10203800340500203C0500203C0500204405002014
:10204800440500204C0500204C05002054050020C4
:10205800540500205C0500205C0500206405002074
:10206800640500206C0500206C0500207405002024
:10207800740500207C0500207C05002084050020D4
:10208800840500208C0500208C0500209405002084
:10209800940500209C0500209C050020A405002034
:1020A800A4050020AC050020AC050020B4050020E4
:1020B800B4050020BC050020BC050020C405002094
:1020C800C4050020CC050020CC050020D405002044
:1020D800D4050020DC050020DC050020E4050020F4
:1020E800E4050020EC050020EC050020F4050020A4
:1020F800F4050020FC050020FC0500200406002053
:10210800040600200C0600200C06002014060020FF
:10211800140600201C0600201C06002024060020AF
:10212800240600202C0600202C060020340600205F
:10213800340600203C0600203C060020440600200F
:10214800440600204C0600204C06002054060020BF
:10215800540600205C0600205C060020640600206F
:10216800640600206C0600206C060020740600201F
:10217800740600207C0600207C06002084060020CF
:10218800840600208C0600208C060020940600207F
:10219800940600209C0600209C060020A40600202F
:1021A800A4060020AC060020AC060020B4060020DF
:1021B800B4060020BC060020BC060020C40600208F
:1021C800C4060020CC060020CC060020D40600203F
:1021D800D4060020DC060020DC060020E4060020EF
:1021E800E4060020EC060020EC060020F40600209F
:1021F800F4060020FC060020FC060020040700204E
:10220800040700200C0700200C07002014070020FA
:10221800140700201C0700201C07002024070020AA
:10222800240700202C0700202C070020340700205A
:10223800340700203C0700203C070020440700200A
:10224800440700204C0700204C07002054070020BA
:10225800540700205C0700205C070020640700206A
:10226800640700206C0700206C070020740700201A
:10227800740700207C0700207C07002084070020CA
:10228800840700208C0700208C070020940700207A
:10229800940700209C0700209C070020A40700202A
:1022A800A4070020AC070020AC070020B4070020DA
:1022B800B4070020BC070020BC070020C40700208A
:1022C800C4070020CC070020CC070020D40700203A
:1022D800D4070020DC070020DC070020E4070020EA
:1022E800E4070020EC070020EC070020F40700209A
:1022F800F4070020FC070020FC0700200408002049
:10230800040800200C0800200C08002014080020F5
:10231800140800201C0800201C08002024080020A5
:102328002408002000000200FFFFFFFFAD16000098
:0C233800390100000D0100000000000051
:0400000300000CE10C
:00000001FF
